00COTAHIST.2024BOVESPA 20241108                                                                                                                                                                                                                      
012024110802CMIG3       010CEMIG       ON      N1   R$  000000000143000000000014490000000001421000000000143800000000014410000000001441000000000144801290000000000000218100000000000313735000000000000000009999123100000010000000000000BRCMIGACNOR6244
012024110802CMIG4       010CEMIG       PN      N1   R$  000000000112900000000011340000000001112000000000112200000000011290000000001129000000000113021915000000000013679600000000015355367200000000000000009999123100000010000000000000BRCMIGACNPR3245
012024110802CMIN3       010CSNMINERACAOON      N2   R$  000000000060500000000006070000000000584000000000058900000000005850000000000585000000000058615598000000000013064800000000007701755900000000000000009999123100000010000000000000BRCMINACNOR2112
012024110802DASA3       010DASA        ON      NM   R$  000000000025500000000002550000000000245000000000024800000000002480000000000247000000000024802138000000000001195400000000000296949600000000000000009999123100000010000000000000BRDASAACNOR1123
012024110802DESK3       010DESKTOP     ON      NM   R$  000000000137100000000013990000000001336000000000136200000000013750000000001375000000000137600859000000000000159400000000000217222400000000000000009999123100000010000000000000BRDESKACNOR2104
012024110802DEXP3       010DEXXOS PAR  ON      N1   R$  000000000086500000000008700000000000850000000000085900000000008610000000000861000000000087100483000000000000077900000000000066968100000000000000009999123100000010000000000000BRDEXPACNOR1105
012024110802DEXP4       010DEXXOS PAR  PN      N1   R$  000000000086000000000008650000000000848000000000085500000000008650000000000851000000000088500026000000000000009500000000000008127000000000000000009999123100000010000000000000BRDEXPACNPR8105
012024110802DIRR3       010DIRECIONAL  ON      NM   R$  000000000300900000000030730000000002880000000000299200000000030480000000003035000000000304814483000000000003242200000000009701235000000000000000009999123100000010000000000000BRDIRRACNOR0119
012024110802DMVF3       010D1000VFARMA ON      NM   R$  000000000071600000000007250000000000688000000000070600000000007000000000000699000000000070000476000000000000098400000000000069520400000000000000009999123100000010000000000000BRDMVFACNOR9100
012024110802DOHL4       010DOHLER      PN           R$  000000000040000000000004050000000000390000000000039400000000004040000000000394000000000040400018000000000000004000000000000001576500000000000000009999123100000010000000000000BRDOHLACNPR9066
012024110802DOTZ3       010DOTZ SA     ON      NM   R$  000000000053000000000005430000000000503000000000052300000000005290000000000498000000000052900082000000000000018600000000000009735900000000000000009999123100000010000000000000BRDOTZACNOR7101
012024110802DXCO3       010DEXCO       ON      NM   R$  000000000081900000000008190000000000782000000000079300000000007940000000000793000000000079507101000000000004511800000000003580604500000000000000009999123100000010000000000000BRDXCOACNOR8105
012024110802FHER3       010FER HERINGERON      NM   R$  000000000036400000000003700000000000364000000000036500000000003640000000000363000000000037000005000000000000000600000000000000219100000000000000009999123100000010000000000000BRFHERACNOR5103
012024110802FIEI3       010FICA        ON           R$  000000000110000000000011000000000001100000000000110000000000011000000000000945000000000110000001000000000000000100000000000000110000000000000000009999123100000010000000000000BRFIEIACNOR2100
012024110802FIQE3       010UNIFIQUE    ON      NM   R$  000000000038400000000003840000000000375000000000038000000000003790000000000378000000000037900770000000000000386400000000000146949300000000000000009999123100000010000000000000BRFIQEACNOR5107
012024110802BNBR3       010NORD BRASIL ON           R$  000000000940200000000094020000000009402000000000940200000000094020000000009200000000001085500001000000000000000100000000000000940200000000000000009999123100000010000000000000BRBNBRACNOR8209
012024110802BOBR4       010BOMBRIL     PN           R$  000000000026800000000002750000000000264000000000026900000000002680000000000268000000000027400095000000000000032100000000000008659900000000000000009999123100000010000000000000BRBOBRACNPR3128
012024110802BRAV3       010BRAVA       ON      NM   R$  000000000168500000000016940000000001613000000000164500000000016260000000001626000000000162917134000000000008771400000000014433017600000000000000009999123100000010000000000000BRBRAVACNOR3100
012024110802LUXM4       010TREVISA     PN           R$  000000000123900000000012390000000001239000000000123900000000012390000000001101000000000124000001000000000000000100000000000000123900000000000000009999123100000010000000000000BRLUXMACNPR4052
012024110802LVTC3       010WDC NETWORKSON      NM   R$  000000000035100000000003530000000000344000000000034900000000003440000000000344000000000034900031000000000000007300000000000002552600000000000000009999123100000010000000000000BRLVTCACNOR4102
012024110802LWSA3       010LWSA        ON      NM   R$  000000000044000000000004570000000000425000000000043500000000004300000000000428000000000043013904000000000009102900000000003963904300000000000000009999123100000010000000000000BRLWSAACNOR8103
012024110802MRSA3B      010MRS LOGIST  ON      MB   R$  000000000300000000000030000000000003000000000000300000000000030000000000002730000000000310000001000000000000000100000000000000300000000000000000009999123100000010000000000000BRMRSAACNOR6125
012024110802MRVE3       010MRV         ON      NM   R$  000000000070000000000007020000000000667000000000067800000000006930000000000692000000000069323651000000000017600600000000011940067300000000000000009999123100000010000000000000BRMRVEACNOR2127
012024110802SMFT3       010SMART FIT   ON      NM   R$  000000000207900000000020850000000002028000000000205500000000020450000000002045000000000206610551000000000002543700000000005227594400000000000000009999123100000010000000000000BRSMFTACNOR1112
012024110802SMTO3       010SAO MARTINHOON      NM   R$  000000000254300000000025450000000002500000000000252100000000025370000000002531000000000253706936000000000001256100000000003167025100000000000000009999123100000010000000000000BRSMTOACNOR3127
012024110802B3SA3       010B3          ON      NM   R$  000000000104800000000010550000000001021000000000103100000000010310000000001030000000000103149238000000000058628700000000060489197200000000000000009999123100000010000000000000BRB3SAACNOR6134
012024110802BBSE3       010BBSEGURIDADEON      NM   R$  000000000345000000000034680000000003422000000000344200000000034290000000003428000000000343115358000000000004542200000000015637906400000000000000009999123100000010000000000000BRBBSEACNOR5125
012024110802BRSR3       010BANRISUL    ON      N1   R$  000000000119400000000012220000000001188000000000120000000000012200000000001191000000000122400037000000000000005300000000000006360100000000000000009999123100000010000000000000BRBRSRACNOR3189
012024110802BRSR5       010BANRISUL    PNA     N1   R$  000000000179400000000017940000000001794000000000179400000000017940000000001500000000000172900001000000000000000100000000000000179400000000000000009999123100000010000000000000BRBRSRACNPA6193
012024110802BRSR6       010BANRISUL    PNB     N1   R$  000000000111500000000011190000000001097000000000110700000000011190000000001119000000000112006166000000000001865400000000002065421000000000000000009999123100000010000000000000BRBRSRACNPB4192
012024110802BSLI3       010BRB BANCO   ON  ES       R$  000000000085100000000008830000000000851000000000086700000000008830000000000850000000000092300002000000000000000200000000000000173400000000000000009999123100000010000000000000BRBSLIACNOR5195
012024110802BSLI4       010BRB BANCO   PN  ES       R$  000000000082000000000008200000000000820000000000082000000000008200000000000822000000000086400001000000000000000100000000000000082000000000000000009999123100000010000000000000BRBSLIACNPR2195
012024110802CAMB3       010CAMBUCI     ON           R$  000000000112600000000011570000000001125000000000114400000000011550000000001128000000000115500184000000000000036600000000000041872800000000000000009999123100000010000000000000BRCAMBACNOR4131
012024110802CAML3       010CAMIL       ON      NM   R$  000000000079400000000007950000000000772000000000077900000000007840000000000781000000000078401544000000000000347200000000000270803500000000000000009999123100000010000000000000BRCAMLACNOR3129
012024110802CASH3       010MELIUZ      ON      NM   R$  000000000035700000000003570000000000342000000000034600000000003420000000000342000000000034401253000000000000653700000000000226511900000000000000009999123100000010000000000000BRCASHACNOR8107
012024110802CPLE3       010COPEL       ON      N2   R$  000000000083600000000008420000000000826000000000083500000000008380000000000838000000000083907049000000000005601200000000004678705300000000000000009999123100000010000000000000BRCPLEACNOR8150
012024110802CPLE5       010COPEL       PNA     N2   R$  000000000118000000000011800000000001180000000000118000000000011800000000001002000000000118000008000000000000000900000000000001062000000000000000009999123100000010000000000000BRCPLEACNPA1148
012024110802CPLE6       010COPEL       PNB     N2   R$  000000000094200000000009450000000000932000000000093800000000009380000000000938000000000094117651000000000017846600000000016745405000000000000000009999123100000010000000000000BRCPLEACNPB9147
012024110802CRFB3       010CARREFOUR BRON      NM   R$  000000000070400000000007100000000000686000000000069400000000006950000000000694000000000069514248000000000008685100000000006033892400000000000000009999123100000010000000000000BRCRFBACNOR2116
012024110802GRND3       010GRENDENE    ON      NM   R$  000000000054000000000005400000000000523000000000052800000000005280000000000525000000000052802544000000000000995400000000000526221000000000000000009999123100000010000000000000BRGRNDACNOR3175
012024110802GUAR3       010GUARARAPES  ON      NM   R$  000000000084200000000008510000000000801000000000082800000000008340000000000834000000000083805164000000000002607600000000002160226500000000000000009999123100000010000000000000BRGUARACNOR4173
012024110802AZZA3       010AZZAS 2154  ON      NM   R$  000000000398100000000040250000000003895000000000395800000000040250000000004013000000000402611454000000000002244600000000008885865800000000000000009999123100000010000000000000BRAZZAACNOR9100
012024110802BRIT3       010BRISANET    ON      NM   R$  000000000032200000000003300000000000317000000000032200000000003300000000000330000000000033100595000000000000186800000000000060301000000000000000009999123100000010000000000000BRBRITACNOR0103
012024110802BRKM3       010BRASKEM     ON      N1   R$  000000000163500000000016350000000001566000000000158900000000015790000000001571000000000157400142000000000000029700000000000047204100000000000000009999123100000010000000000000BRBRKMACNOR1119
012024110802BRKM5       010BRASKEM     PNA     N1   R$  000000000163600000000016420000000001575000000000159400000000015750000000001575000000000157814578000000000005250900000000008373415300000000000000009999123100000010000000000000BRBRKMACNPA4121
012024110802CPFE3       010CPFL ENERGIAON      NM   R$  000000000324000000000032550000000003202000000000323100000000032370000000003232000000000323706260000000000001364100000000004407558500000000000000009999123100000010000000000000BRCPFEACNOR0137
012024110802EKTR4       010ELEKTRO     PN           R$  000000000454200000000045420000000004213000000000431100000000042710000000004273000000000454500004000000000000000400000000000001724700000000000000009999123100000010000000000000BREKTRACNPR7166
012024110802ELET3       010ELETROBRAS  ON      N1   R$  000000000355900000000035720000000003492000000000354200000000035640000000003560000000000356440346000000000012050000000000042682016200000000000000009999123100000010000000000000BRELETACNOR6160
012024110802ELET6       010ELETROBRAS  PNB     N1   R$  000000000399000000000040190000000003944000000000399200000000040160000000004001000000000401610320000000000002145300000000008565388600000000000000009999123100000010000000000000BRELETACNPB7077
012024110802GGPS3       010GPS         ON      NM   R$  000000000169200000000016920000000001660000000000167700000000016710000000001671000000000167506627000000000001645700000000002761309300000000000000009999123100000010000000000000BRGGPSACNOR9103
012024110802GMAT3       010GRUPO MATEUSON      NM   R$  000000000073600000000007410000000000722000000000073100000000007370000000000736000000000073704313000000000002608700000000001909031900000000000000009999123100000010000000000000BRGMATACNOR7103
012024110802NEOE3       010NEOENERGIA  ON      NM   R$  000000000193900000000019590000000001927000000000194200000000019470000000001946000000000194704169000000000003659600000000007107898200000000000000009999123100000010000000000000BRNEOEACNOR3123
012024110802NGRD3       010NEOGRID     ON      NM   R$  000000000246100000000027080000000002439000000000257700000000026860000000002625000000000270000444000000000000071000000000000182988700000000000000009999123100000010000000000000BRNGRDACNOR3106
012024110802NINJ3       010GETNINJAS   ON      NM   R$  000000000043700000000004600000000000437000000000045200000000004600000000000439000000000047000025000000000000008800000000000003979100000000000000009999123100000010000000000000BRNINJACNOR5101
012024110802NORD3       010NORDON MET  ON           R$  000000000084500000000008450000000000776000000000080000000000007760000000000743000000000077600003000000000000000300000000000000240000000000000000009999123100000010000000000000BRNORDACNOR7135
012024110802NTCO3       010GRUPO NATURAON      NM   R$  000000000137500000000014570000000001374000000000143100000000014530000000001452000000000145331158000000000015915400000000022783110800000000000000009999123100000010000000000000BRNTCOACNOR5106
012024110802RADL3       010RAIADROGASILON      NM   R$  000000000249600000000025490000000002477000000000253300000000025450000000002544000000000254623669000000000010600400000000026857572200000000000000009999123100000010000000000000BRRADLACNOR0158
012024110802RAIL3       010RUMO S.A.   ON      NM   R$  000000000195100000000019720000000001886000000000192800000000019450000000001944000000000194747361000000000025591900000000049346006000000000000000009999123100000010000000000000BRRAILACNOR9105
012024110802SYNE3       010SYN PROP TECON      NM   R$  000000000087200000000008720000000000850000000000085600000000008650000000000859000000000086500859000000000000242700000000000207934900000000000000009999123100000010000000000000BRSYNEACNOR2103
012024110802TAEE11      010TAESA       UNT     N2   R$  000000000348200000000035690000000003467000000000351100000000034940000000003493000000000350013621000000000004054400000000014236175000000000000000009999123100000010000000000000BRTAEECDAM10148
012024110802TAEE3       010TAESA       ON      N2   R$  000000000116300000000011820000000001150000000000116400000000011640000000001159000000000116500663000000000000127000000000000147923800000000000000009999123100000010000000000000BRTAEEACNOR9148
012024110802TAEE4       010TAESA       PN      N2   R$  000000000117100000000011890000000001162000000000117100000000011730000000001170000000000117400841000000000000247500000000000289842000000000000000009999123100000010000000000000BRTAEEACNPR6148
012024110802BBDC3       010BRADESCO    ON  EJ  N1   R$  000000000121200000000012120000000001194000000000119900000000012040000000001201000000000120516640000000000010585800000000012693429900000000000000009999123100000010000000000000BRBBDCACNOR1777
012024110802BBDC4       010BRADESCO    PN  EJ  N1   R$  000000000135500000000013560000000001336000000000134500000000013510000000001350000000000135147359000000000044201100000000059472191600000000000000009999123100000010000000000000BRBBDCACNPR8777
012024110802MTRE3       010MITRE REALTYON      NM   R$  000000000036700000000003940000000000359000000000037100000000003650000000000365000000000036702098000000000001459400000000000541914000000000000000009999123100000010000000000000BRMTREACNOR6116
012024110802MTSA4       010METISA      PN           R$  000000000341900000000034190000000003289000000000333000000000033000000000003250000000000331000031000000000000003900000000000012989200000000000000009999123100000010000000000000BRMTSAACNPR9073
012024110802MULT3       010MULTIPLAN   ON      N2   R$  000000000246700000000024830000000002441000000000246600000000024680000000002464000000000246812657000000000002353600000000005804938100000000000000009999123100000010000000000000BRMULTACNOR5139
012024110802MWET3       010WETZEL S/A  ON           R$  000000000095300000000009530000000000953000000000095300000000009530000000000900000000000260000001000000000000000100000000000000095300000000000000009999123100000010000000000000BRMWETACNOR6118
012024110802MWET4       010WETZEL S/A  PN           R$  000000000119900000000011990000000001131000000000116000000000011310000000001136000000000128900003000000000000000300000000000000348100000000000000009999123100000010000000000000BRMWETACNPR3118
012024110802MYPK3       010IOCHP-MAXIONON      NM   R$  000000000113400000000011620000000001117000000000114600000000011550000000001144000000000115508075000000000002473700000000002837029500000000000000009999123100000010000000000000BRMYPKACNOR7156
012024110802PRNR3       010PRINER      ON      NM   R$  000000000149200000000015080000000001433000000000146000000000014520000000001441000000000145403537000000000000871100000000001272502100000000000000009999123100000010000000000000BRPRNRACNOR4109
012024110802PSSA3       010PORTO SEGUROON      NM   R$  000000000381400000000038690000000003798000000000383600000000038580000000003833000000000385810997000000000002987100000000011458617100000000000000009999123100000010000000000000BRPSSAACNOR7156
012024110802PTBL3       010PORTOBELLO  ON      NM   R$  000000000041500000000004150000000000396000000000040200000000004030000000000403000000000040401586000000000000629800000000000253218200000000000000009999123100000010000000000000BRPTBLACNOR8132
012024110802PTNT3       010PETTENATI   ON  EDJ      R$  000000000094200000000009420000000000924000000000093000000000009240000000000914000000000093400003000000000000000300000000000000279200000000000000009999123100000010000000000000BRPTNTACNOR6043
012024110802PTNT4       010PETTENATI   PN  EDJ      R$  000000000061700000000006820000000000616000000000064900000000006800000000000642000000000068000018000000000000004600000000000002988000000000000000009999123100000010000000000000BRPTNTACNPR3048
012024110802QUAL3       010QUALICORP   ON      NM   R$  000000000022400000000002340000000000221000000000022700000000002270000000000227000000000022804471000000000004769500000000001085644800000000000000009999123100000010000000000000BRQUALACNOR6120
012024110802ZAMP3       010ZAMP S.A.   ON           R$  000000000024300000000002700000000000237000000000025200000000002620000000000261000000000026202293000000000001011100000000000255404900000000000000009999123100000010000000000000BRZAMPACNOR5101
012024110802AERI3       010AERIS       ON      NM   R$  000000000057700000000005770000000000536000000000054700000000005530000000000553000000000055401363000000000000485000000000000265329500000000000000009999123100000010000000000000BRAERIACNOR4102
012024110802AGRO3       010BRASILAGRO  ON      NM   R$  000000000235500000000023880000000002317000000000236200000000023850000000002380000000000238501922000000000000252700000000000596993300000000000000009999123100000010000000000000BRAGROACNOR7115
012024110802ALLD3       010ALLIED      ON      NM   R$  000000000082500000000008390000000000803000000000082000000000008300000000000829000000000083000911000000000000359700000000000295059000000000000000009999123100000010000000000000BRALLDACNOR3106
012024110802ALOS3       010ALLOS       ON      NM   R$  000000000217500000000021820000000002155000000000217000000000021730000000002172000000000217517121000000000004488900000000009741262400000000000000009999123100000010000000000000BRALOSACNOR5103
012024110802CSED3       010CRUZEIRO EDUON      NM   R$  000000000033200000000003330000000000313000000000031700000000003180000000000317000000000031801627000000000000994000000000000315880400000000000000009999123100000010000000000000BRCSEDACNOR9105
012024110802CSMG3       010COPASA      ON      NM   R$  000000000231200000000023530000000002275000000000231600000000023260000000002326000000000232807527000000000001729000000000004004626800000000000000009999123100000010000000000000BRCSMGACNOR5175
012024110802CSNA3       010SID NACIONALON           R$  000000000120000000000012040000000001147000000000116900000000011750000000001171000000000117518852000000000009913000000000011592898700000000000000009999123100000010000000000000BRCSNAACNOR6261
012024110802KLBN11      010KLABIN S/A  UNT     N2   R$  000000000211300000000021130000000002043000000000206700000000020700000000002070000000000207115511000000000005948100000000012299382900000000000000009999123100000010000000000000BRKLBNCDAM18143
012024110802KLBN3       010KLABIN S/A  ON      N2   R$  000000000042500000000004250000000000411000000000041600000000004180000000000415000000000041801055000000000000384300000000000160194000000000000000009999123100000010000000000000BRKLBNACNOR2171
012024110802KLBN4       010KLABIN S/A  PN      N2   R$  000000000042300000000004230000000000408000000000041300000000004130000000000413000000000041502811000000000002069400000000000855960000000000000000009999123100000010000000000000BRKLBNACNPR9171
012024110802MILS3       010MILLS       ON      NM   R$  000000000102500000000010250000000000986000000000099800000000010000000000000998000000000100106855000000000002260700000000002257806600000000000000009999123100000010000000000000BRMILSACNOR2128
012024110802MLAS3       010MULTILASER  ON      NM   R$  000000000015700000000001570000000000149000000000015100000000001520000000000152000000000015305171000000000002501700000000000378760900000000000000009999123100000010000000000000BRMLASACNOR9101
012024110802MNDL3       010MUNDIAL     ON           R$  000000000158200000000015820000000001582000000000158200000000015820000000001582000000000170000001000000000000000100000000000000158200000000000000009999123100000010000000000000BRMNDLACNOR4109
012024110802MNPR3       010MINUPAR     ON           R$  000000000200000000000020000000000001999000000000199900000000020000000000001900000000000200000005000000000000002300000000000004599900000000000000009999123100000010000000000000BRMNPRACNOR5122
012024110802HAGA3       010HAGA S/A    ON           R$  000000000024300000000002490000000000243000000000024400000000002430000000000243000000000024600058000000000000014900000000000003641700000000000000009999123100000010000000000000BRHAGAACNOR7103
012024110802HAGA4       010HAGA S/A    PN           R$  000000000012600000000001290000000000126000000000012800000000001290000000000126000000000012900008000000000000001600000000000000204900000000000000009999123100000010000000000000BRHAGAACNPR4103
012024110802ITUB3       010ITAUUNIBANCOON  EJ  N1   R$  000000000308000000000030800000000003023000000000304300000000030430000000003043000000000304501703000000000000373100000000001135579100000000000000009999123100000010000000000000BRITUBACNOR4343
012024110802ITUB4       010ITAUUNIBANCOPN  EJ  N1   R$  000000000350700000000035370000000003488000000000350900000000035080000000003507000000000350841613000000000023166300000000081302951000000000000000009999123100000010000000000000BRITUBACNPR1343
012024110802SAPR11      010SANEPAR     UNT     N2   R$  000000000260000000000026300000000002565000000000259300000000025970000000002590000000000260104590000000000000904500000000002346133400000000000000009999123100000010000000000000BRSAPRCDAM13118
012024110802SAPR3       010SANEPAR     ON      N2   R$  000000000049800000000005030000000000494000000000049700000000004970000000000497000000000050000853000000000000302400000000000150522500000000000000009999123100000010000000000000BRSAPRACNOR9159
012024110802KRSA3       010KORA SAUDE  ON      NM   R$  000000000062000000000006490000000000615000000000062700000000006410000000000627000000000064100085000000000000059800000000000037544800000000000000009999123100000010000000000000BRKRSAACNOR0101
012024110802LAND3       010TERRASANTAPAON      NM   R$  000000000125900000000012590000000001222000000000122900000000012230000000001222000000000123000140000000000000017700000000000021767600000000000000009999123100000010000000000000BRLANDACNOR9103
012024110802LAVV3       010LAVVI       ON      NM   R$  000000000088500000000008900000000000870000000000088000000000008870000000000885000000000088702425000000000000569600000000000501423100000000000000009999123100000010000000000000BRLAVVACNOR4113
012024110802LEVE3       010METAL LEVE  ON      NM   R$  000000000304000000000030780000000002980000000000302900000000030310000000003028000000000303103343000000000000572600000000001734679000000000000000009999123100000010000000000000BRLEVEACNOR2197
012024110802LJQQ3       010QUERO-QUERO ON      NM   R$  000000000028200000000002820000000000274000000000027700000000002780000000000278000000000028004408000000000004809800000000001335921500000000000000009999123100000010000000000000BRLJQQACNOR5104
012024110802LOGG3       010LOG COM PROPON      NM   R$  000000000233000000000023620000000002275000000000232200000000023360000000002322000000000233602753000000000000346000000000000803503600000000000000009999123100000010000000000000BRLOGGACNOR7107
012024110802LOGN3       010LOG-IN      ON      NM   R$  000000000244000000000025200000000002436000000000248200000000024710000000002425000000000247100200000000000000055600000000000138022800000000000000009999123100000010000000000000BRLOGNACNOR3105
012024110802LPSB3       010LOPES BRASILON      NM   R$  000000000016700000000001690000000000159000000000016200000000001650000000000165000000000016700798000000000000151200000000000024569600000000000000009999123100000010000000000000BRLPSBACNOR0114
012024110802LREN3       010LOJAS RENNERON      NM   R$  000000000168700000000017560000000001665000000000170800000000016970000000001696000000000170468502000000000053665300000000091687785000000000000000009999123100000010000000000000BRLRENACNOR1222
012024110802AALR3       010ALLIAR      ON      NM   R$  000000000145100000000014790000000001400000000000144000000000014790000000001450000000000148700055000000000000009400000000000013542000000000000000009999123100000010000000000000BRAALRACNOR6102
012024110802ABCB4       010ABC BRASIL  PN      N2   R$  000000000206600000000020670000000002018000000000204700000000020570000000002054000000000205706901000000000001268900000000002598582000000000000000009999123100000010000000000000BRABCBACNPR4146
012024110802ABEV3       010AMBEV S/A   ON           R$  000000000124000000000012550000000001231000000000124100000000012330000000001233000000000123739909000000000035013400000000043458156200000000000000009999123100000010000000000000BRABEVACNOR1128
012024110802BEEF3       010MINERVA     ON      NM   R$  000000000055200000000005520000000000538000000000054200000000005390000000000538000000000054010553000000000008670900000000004699760200000000000000009999123100000010000000000000BRBEEFACNOR6117
012024110802BPAC11      010BTGP BANCO  UNT     N2   R$  000000000323500000000032720000000003202000000000323100000000032500000000003248000000000325018891000000000005564100000000017979632700000000000000009999123100000010000000000000BRBPACUNT006119
012024110802CBAV3       010CBA         ON      NM   R$  000000000059500000000005950000000000526000000000054500000000005380000000000537000000000053813853000000000009769100000000005327546100000000000000009999123100000010000000000000BRCBAVACNOR5104
012024110802CCRO3       010CCR SA      ON  ED  NM   R$  000000000119200000000011950000000001169000000000118200000000011690000000001169000000000117719574000000000012876900000000015225609500000000000000009999123100000010000000000000BRCCROACNOR2146
012024110802CEAB3       010CEA MODAS   ON      NM   R$  000000000125000000000012880000000001235000000000126200000000012760000000001276000000000128011297000000000003180000000000004013868900000000000000009999123100000010000000000000BRCEABACNOR1102
012024110802CEBR3       010CEB         ON           R$  000000000189500000000018990000000001803000000000184600000000018990000000001850000000000189900033000000000000005800000000000010708800000000000000009999123100000010000000000000BRCEBRACNOR5125
012024110802CEBR5       010CEB         PNA          R$  000000000169900000000016990000000001635000000000164100000000016790000000001637000000000167800014000000000000005800000000000009522400000000000000009999123100000010000000000000BRCEBRACNPA8124
012024110802CEBR6       010CEB         PNB          R$  000000000181000000000018400000000001801000000000181800000000018010000000001801000000000180500064000000000000015600000000000028363700000000000000009999123100000010000000000000BRCEBRACNPB6124
012024110802CRPG5       010CRISTAL     PNA          R$  000000000244200000000024600000000002442000000000244800000000024600000000002450000000000248000005000000000000000600000000000001468800000000000000009999123100000010000000000000BRCRPGACNPA3119
012024110802CSAN3       010COSAN       ON      NM   R$  000000000117200000000011870000000001158000000000116900000000011670000000001167000000000116925285000000000012046300000000014086730700000000000000009999123100000010000000000000BRCSANACNOR6126
012024110802ELMD3       010ELETROMIDIA ON      NM   R$  000000000265000000000026800000000002645000000000265700000000026650000000002660000000000266501133000000000000363300000000000965449000000000000000009999123100000010000000000000BRELMDACNOR3101
012024110802EMAE4       010EMAE        PN           R$  000000000402900000000042010000000003972000000000416500000000040700000000003972000000000406500019000000000000003600000000000014996500000000000000009999123100000010000000000000BREMAEACNPR1126
012024110802EMBR3       010EMBRAER     ON      NM   R$  000000000505500000000055280000000004940000000000523400000000053790000000005373000000000537968734000000000022071200000000115537970300000000000000009999123100000010000000000000BREMBRACNOR4191
012024110802HAPV3       010HAPVIDA     ON      NM   R$  000000000032400000000003250000000000316000000000032000000000003190000000000319000000000032036907000000000096207200000000030803347200000000000000009999123100000010000000000000BRHAPVACNOR4115
012024110802MOVI3       010MOVIDA      ON      NM   R$  000000000066000000000006670000000000613000000000063600000000006380000000000638000000000063916967000000000010651100000000006783275000000000000000009999123100000010000000000000BRMOVIACNOR0123
012024110802MRFG3       010MARFRIG     ON      NM   R$  000000000151900000000015300000000001501000000000151400000000015100000000001510000000000151214853000000000004069200000000006163896200000000000000009999123100000010000000000000BRMRFGACNOR0116
012024110802HBOR3       010HELBOR      ON      NM   R$  000000000018500000000001860000000000180000000000018100000000001820000000000182000000000018500441000000000000623900000000000113281900000000000000009999123100000010000000000000BRHBORACNOR3118
012024110802ROMI3       010ROMI        ON      NM   R$  000000000097700000000009770000000000958000000000096400000000009580000000000958000000000095901613000000000000370400000000000357157800000000000000009999123100000010000000000000BRROMIACNOR8196
012024110802SCAR3       010SAO CARLOS  ON      NM   R$  000000000216000000000022500000000002075000000000210600000000020800000000002075000000000210000172000000000000055800000000000117514900000000000000009999123100000010000000000000BRSCARACNOR7131
012024110802SEER3       010SER EDUCA   ON      NM   R$  000000000071100000000007280000000000693000000000071000000000007130000000000713000000000071703157000000000000720100000000000511592800000000000000009999123100000010000000000000BRSEERACNOR5119
012024110802SHOW3       010TIME FOR FUNON      NM   R$  000000000009000000000000920000000000088000000000008900000000000890000000000089000000000009000213000000000000074900000000000006724200000000000000009999123100000010000000000000BRSHOWACNOR7105
012024110802SHUL4       010SCHULZ      PN           R$  000000000062000000000006200000000000598000000000060400000000006050000000000603000000000060501479000000000000487800000000000294857200000000000000009999123100000010000000000000BRSHULACNPR4157
012024110802GOAU3       010GERDAU MET  ON      N1   R$  000000000110000000000011080000000001080000000000109200000000010950000000001095000000000110700453000000000000070400000000000076930900000000000000009999123100000010000000000000BRGOAUACNOR1268
012024110802GOAU4       010GERDAU MET  PN      N1   R$  000000000114000000000011530000000001118000000000113300000000011490000000001148000000000114917105000000000011664300000000013226208400000000000000009999123100000010000000000000BRGOAUACNPR8269
012024110802ITSA3       010ITAUSA      ON      N1   R$  000000000109000000000010900000000001059000000000106800000000010740000000001068000000000107500484000000000000208300000000000222540400000000000000009999123100000010000000000000BRITSAACNOR0443
012024110802ITSA4       010ITAUSA      PN      N1   R$  000000000107300000000010760000000001056000000000106400000000010690000000001068000000000106934886000000000035272400000000037552161200000000000000009999123100000010000000000000BRITSAACNPR7443
012024110802SNSY3       010SANSUY      ON           R$  000000000107900000000011500000000001079000000000109600000000011500000000001065000000000115500013000000000000004500000000000004933900000000000000009999123100000010000000000000BRSNSYACNOR2113
012024110802SNSY5       010SANSUY      PNA          R$  000000000052000000000005200000000000490000000000050100000000005160000000000497000000000051600027000000000000011000000000000005516500000000000000009999123100000010000000000000BRSNSYACNPA5111
012024110802SOJA3       010BOA SAFRA   ON      NM   R$  000000000124800000000012500000000001225000000000123400000000012270000000001226000000000123501909000000000000354700000000000438013100000000000000009999123100000010000000000000BRSOJAACNOR9106
012024110802SANB11      010SANTANDER BRUNT          R$  000000000267700000000026970000000002668000000000267600000000026680000000002668000000000267009532000000000002533100000000006778700500000000000000009999123100000010000000000000BRSANBCDAM13166
012024110802SANB3       010SANTANDER BRON           R$  000000000127300000000012790000000001264000000000126900000000012730000000001265000000000127400525000000000000105500000000000133894300000000000000009999123100000010000000000000BRSANBACNOR8173
012024110802SANB4       010SANTANDER BRPN           R$  000000000142300000000014230000000001402000000000141200000000014080000000001408000000000141500546000000000000117500000000000165939200000000000000009999123100000010000000000000BRSANBACNPR5173
012024110802TRPL3       010TRAN PAULISTON      N1   R$  000000000307000000000030700000000003036000000000305700000000030630000000003063000000000317100004000000000000000400000000000001223100000000000000009999123100000010000000000000BRTRPLACNOR4185
012024110802TRPL4       010TRAN PAULISTPN      N1   R$  000000000243000000000024560000000002408000000000243600000000024370000000002437000000000244116202000000000003020800000000007359916000000000000000009999123100000010000000000000BRTRPLACNPR1185
012024110802TTEN3       0103TENTOS     ON      NM   R$  000000000119600000000011960000000001173000000000118400000000011860000000001184000000000118605567000000000000898900000000001064591400000000000000009999123100000010000000000000BRTTENACNOR0103
012024110802TUPY3       010TUPY        ON      NM   R$  000000000238000000000023860000000002340000000000236100000000023670000000002360000000000236702774000000000000455900000000001076556100000000000000009999123100000010000000000000BRTUPYACNOR1184
012024110802PINE4       010PINE        PN      N2   R$  000000000045500000000004600000000000449000000000045100000000004600000000000454000000000046000319000000000000142300000000000064258400000000000000009999123100000010000000000000BRPINEACNPR8152
012024110802PLAS3       010PLASCAR PARTON           R$  000000000060000000000006000000000000600000000000060000000000006000000000000532000000000061000002000000000000000500000000000000300000000000000000009999123100000010000000000000BRPLASACNOR2106
012024110802PLPL3       010PLANOEPLANO ON      NM   R$  000000000130000000000013110000000001260000000000128800000000013050000000001302000000000130503945000000000001012200000000001304000600000000000000009999123100000010000000000000BRPLPLACNOR5104
012024110802PNVL3       010DIMED       ON      NM   R$  000000000100400000000010040000000000978000000000098700000000009920000000000985000000000099301381000000000000335500000000000331414800000000000000009999123100000010000000000000BRPNVLACNOR9208
012024110802POMO3       010MARCOPOLO   ON      N2   R$  000000000064900000000006670000000000644000000000065700000000006670000000000663000000000066701312000000000000596900000000000392463000000000000000009999123100000010000000000000BRPOMOACNOR0099
012024110802POMO4       010MARCOPOLO   PN      N2   R$  000000000086300000000008880000000000855000000000087300000000008880000000000885000000000088821516000000000009363500000000008178046700000000000000009999123100000010000000000000BRPOMOACNPR7099
012024110802PORT3       010WILSON SONS ON      NM   R$  000000000157800000000015870000000001571000000000157400000000015800000000001576000000000158002144000000000005458900000000008593759600000000000000009999123100000010000000000000BRPORTACNOR8110
012024110802POSI3       010POSITIVO TECON      NM   R$  000000000060700000000006140000000000586000000000059500000000005900000000000590000000000059303845000000000001450900000000000864451200000000000000009999123100000010000000000000BRPOSIACNOR9116
012024110802COCE5       010COELCE      PNA          R$  000000000261600000000027060000000002615000000000264500000000027060000000002650000000000270700022000000000000006500000000000017193900000000000000009999123100000010000000000000BRCOCEACNPA3147
012024110802COGN3       010COGNA ON    ON      NM   R$  000000000014200000000001500000000000134000000000013800000000001360000000000136000000000013720691000000000109300000000000015150441600000000000000009999123100000010000000000000BRCOGNACNOR2105
012024110802SRNA3       010SERENA      ON      NM   R$  000000000073900000000007400000000000717000000000072700000000007340000000000730000000000073607294000000000002895400000000002105638200000000000000009999123100000010000000000000BRSRNAACNOR4100
012024110802STBP3       010SANTOS BRP  ON      NM   R$  000000000127100000000012730000000001257000000000126600000000012730000000001271000000000127309437000000000006964100000000008820478200000000000000009999123100000010000000000000BRSTBPACNOR3133
012024110802SUZB3       010SUZANO S.A. ON      NM   R$  000000000590300000000059030000000005765000000000582700000000058400000000005835000000000584427752000000000005585800000000032551728200000000000000009999123100000010000000000000BRSUZBACNOR0130
012024110802WEST3       010WESTWING    ON      NM   R$  000000000008000000000000800000000000077000000000007700000000000780000000000077000000000007900044000000000000031900000000000002486900000000000000009999123100000010000000000000BRWESTACNOR3100
012024110802WHRL3       010WHIRLPOOL   ON           R$  000000000041800000000004190000000000410000000000041300000000004150000000000411000000000041500015000000000000010400000000000004296000000000000000009999123100000010000000000000BRWHRLACNOR5129
012024110802WHRL4       010WHIRLPOOL   PN           R$  000000000044100000000004450000000000439000000000044000000000004400000000000440000000000044400021000000000000008900000000000003920400000000000000009999123100000010000000000000BRWHRLACNPR2129
012024110802WIZC3       010WIZ CO      ON      NM   R$  000000000059100000000006040000000000576000000000059000000000005840000000000584000000000058703240000000000000947500000000000559721500000000000000009999123100000010000000000000BRWIZCACNOR5102
012024110802UCAS3       010UNICASA     ON      NM   R$  000000000021300000000002180000000000212000000000021400000000002170000000000214000000000021700073000000000000020500000000000004407200000000000000009999123100000010000000000000BRUCASACNOR1113
012024110802PRIO3       010PETRORIO    ON      NM   R$  000000000396400000000039940000000003882000000000392300000000038970000000003897000000000389827072000000000008746600000000034318022200000000000000009999123100000010000000000000BRPRIOACNOR1107
012024110802RECV3       010PETRORECSA  ON      NM   R$  000000000182600000000018430000000001760000000000178700000000017630000000001762000000000176623399000000000007749400000000013855725700000000000000009999123100000010000000000000BRRECVACNOR3107
012024110802REDE3       010REDE ENERGIAON           R$  000000000068200000000006830000000000679000000000068200000000006790000000000679000000000068200019000000000000002200000000000001500900000000000000009999123100000010000000000000BRREDEACNOR7128
012024110802RENT3       010LOCALIZA    ON      NM   R$  000000000416700000000041670000000004042000000000409400000000040900000000004089000000000409042189000000000013034600000000053367941500000000000000009999123100000010000000000000BRRENTACNOR4197
012024110802UNIP3       010UNIPAR      ON           R$  000000000450100000000045010000000004410000000000445100000000044500000000004433000000000446700022000000000000002400000000000010683800000000000000009999123100000010000000000000BRUNIPACNOR7206
012024110802UNIP6       010UNIPAR      PNB          R$  000000000450200000000045810000000004435000000000447200000000044500000000004448000000000445000979000000000000229600000000001026932400000000000000009999123100000010000000000000BRUNIPACNPB8206
012024110802BRBI11      010BR PARTNERS UNT     N2   R$  000000000155000000000015520000000001515000000000153000000000015150000000001515000000000153001666000000000000368900000000000564752000000000000000009999123100000010000000000000BRBRBICDAM10110
012024110802BRFS3       010BRF SA      ON      NM   R$  000000000240100000000024210000000002368000000000240500000000024100000000002410000000000241319544000000000005873800000000014127647700000000000000009999123100000010000000000000BRBRFSACNOR8122
012024110802UGPA3       010ULTRAPAR    ON      NM   R$  000000000200500000000020660000000001994000000000204500000000020530000000002053000000000205724944000000000006525200000000013349690300000000000000009999123100000010000000000000BRUGPAACNOR8156
012024110802VAMO3       010VAMOS       ON      NM   R$  000000000057700000000005770000000000559000000000056500000000005710000000000568000000000057112846000000000010054800000000005689865200000000000000009999123100000010000000000000BRVAMOACNOR7105
012024110802VBBR3       010VIBRA       ON      NM   R$  000000000216200000000022570000000002151000000000223200000000022450000000002245000000000224722552000000000008640400000000019288101400000000000000009999123100000010000000000000BRVBBRACNOR1109
012024110802ODPV3       010ODONTOPREV  ON      NM   R$  000000000113500000000011460000000001128000000000113700000000011340000000001132000000000113802869000000000000606200000000000689349700000000000000009999123100000010000000000000BRODPVACNOR4204
012024110802OFSA3       010OUROFINO S/AON      NM   R$  000000000216000000000022500000000002160000000000221400000000022000000000001990000000000225000007000000000000001500000000000003321000000000000000009999123100000010000000000000BROFSAACNOR7118
012024110802EALT3       010ACO ALTONA  ON           R$  000000000149900000000015390000000001499000000000151900000000015390000000001499000000000155400002000000000000000200000000000000303800000000000000009999123100000010000000000000BREALTACNOR4138
012024110802EALT4       010ACO ALTONA  PN           R$  000000000142800000000014970000000001406000000000143400000000014970000000001460000000000149500111000000000000044400000000000063685000000000000000009999123100000010000000000000BREALTACNPR1138
012024110802ECOR3       010ECORODOVIAS ON      NM   R$  000000000069000000000006970000000000672000000000067800000000006740000000000674000000000067707642000000000005113600000000003471959800000000000000009999123100000010000000000000BRECORACNOR8120
012024110802ONCO3       010ONCOCLINICASON      NM   R$  000000000044200000000004440000000000402000000000042600000000004440000000000437000000000044508534000000000005157000000000002198832900000000000000009999123100000010000000000000BRONCOACNOR6101
012024110802OPCT3       010OCEANPACT   ON      NM   R$  000000000059700000000006160000000000591000000000060500000000006160000000000613000000000061602382000000000000578800000000000350735000000000000000009999123100000010000000000000BROPCTACNOR0100
012024110802ORVR3       010ORIZON      ON      NM   R$  000000000471600000000047160000000004639000000000465800000000046490000000004647000000000464902869000000000001562300000000007277336300000000000000009999123100000010000000000000BRORVRACNOR0101
012024110802RCSL3       010RECRUSUL    ON           R$  000000000042600000000004300000000000417000000000042200000000004220000000000422000000000042502405000000000001030600000000000435812200000000000000009999123100000010000000000000BRRCSLACNOR4134
012024110802RCSL4       010RECRUSUL    PN           R$  000000000019100000000001970000000000187000000000019000000000001890000000000188000000000018905593000000000005203800000000000993208400000000000000009999123100000010000000000000BRRCSLACNPR1134
012024110802RDNI3       010RNI         ON      NM   R$  000000000030600000000003060000000000280000000000029300000000002800000000000280000000000028500076000000000000081200000000000023851000000000000000009999123100000010000000000000BRRDNIACNOR9116
012024110802RDOR3       010REDE D OR   ON      NM   R$  000000000284000000000028930000000002828000000000286300000000028680000000002865000000000287019939000000000004998700000000014316275700000000000000009999123100000010000000000000BRRDORACNOR8114
012024110802RPAD5       010ALFA HOLDINGPNA          R$  000000000072600000000007260000000000726000000000072600000000007260000000000550000000000072600001000000000000000400000000000000290400000000000000009999123100000010000000000000BRRPADACNPA4219
012024110802RSUL4       010RIOSULENSE  PN           R$  000000000598700000000060420000000005970000000000599900000000060420000000005970000000000604200003000000000000000300000000000001799900000000000000009999123100000010000000000000BRRSULACNPR3114
012024110802EGIE3       010ENGIE BRASILON      NM   R$  000000000402100000000040630000000004000000000000403700000000040270000000004026000000000404208841000000000001505600000000006078924900000000000000009999123100000010000000000000BREGIEACNOR9127
012024110802GGBR3       010GERDAU      ON      N1   R$  000000000196400000000020040000000001932000000000194900000000019420000000001942000000000194301090000000000000256200000000000499586500000000000000009999123100000010000000000000BRGGBRACNOR1193
012024110802GGBR4       010GERDAU      PN      N1   R$  000000000200700000000020460000000001993000000000201700000000020460000000002045000000000204734470000000000018647800000000037612683000000000000000009999123100000010000000000000BRGGBRACNPR8193
012024110802AVLL3       010ALPHAVILLE  ON      NM   R$  000000000028300000000002910000000000271000000000028100000000002910000000000270000000000029200011000000000000005800000000000001630800000000000000009999123100000010000000000000BRAVLLACNOR5103
012024110802AZEV3       010AZEVEDO     ON           R$  000000000011600000000001180000000000114000000000011500000000001160000000000116000000000011700217000000000000248600000000000028654000000000000000009999123100000010000000000000BRAZEVACNOR0121
012024110802AZEV4       010AZEVEDO     PN           R$  000000000011600000000001170000000000112000000000011300000000001150000000000114000000000011501130000000000001384200000000000157753200000000000000009999123100000010000000000000BRAZEVACNPR7121
012024110802AZUL4       010AZUL        PN      N2   R$  000000000050800000000005140000000000493000000000050300000000005110000000000510000000000051211547000000000018092400000000009118401400000000000000009999123100000010000000000000BRAZULACNPR4103
012024110802PETZ3       010PETZ        ON      NM   R$  000000000050000000000005000000000000473000000000048700000000004890000000000489000000000049017504000000000019676200000000009596315900000000000000009999123100000010000000000000BRPETZACNOR2110
012024110802RAIZ4       010RAIZEN      PN      N2   R$  000000000027800000000002790000000000268000000000027100000000002690000000000269000000000027018807000000000019269800000000005238971700000000000000009999123100000010000000000000BRRAIZACNPR6111
012024110802TASA3       010TAURUS ARMASON      N2   R$  000000000103500000000010500000000001012000000000102400000000010380000000001027000000000103900064000000000000008600000000000008809600000000000000009999123100000010000000000000BRTASAACNOR7104
012024110802TASA4       010TAURUS ARMASPN      N2   R$  000000000104500000000010450000000001000000000000101400000000010230000000001023000000000102501916000000000000333400000000000338390400000000000000009999123100000010000000000000BRTASAACNPR4104
012024110802TCSA3       010TECNISA     ON      NM   R$  000000000014200000000001440000000000136000000000013800000000001380000000000138000000000014200212000000000000083100000000000011529400000000000000009999123100000010000000000000BRTCSAACNOR3112
012024110802TECN3       010TECHNOS     ON      NM   R$  000000000050600000000005240000000000506000000000051600000000005240000000000512000000000052400125000000000000029100000000000015033400000000000000009999123100000010000000000000BRTECNACNOR6109
012024110802CEDO3       010CEDRO       ON      N1   R$  000000000255000000000025500000000002550000000000255000000000025500000000002500000000000260000001000000000000000700000000000001785000000000000000009999123100000010000000000000BRCEDOACNOR8096
012024110802CEEB3       010COELBA      ON           R$  000000000385000000000038500000000003844000000000384800000000038440000000003800000000000429800003000000000000000300000000000001154400000000000000009999123100000010000000000000BRCEEBACNOR3200
012024110802CGAS5       010COMGAS      PNA          R$  000000001300000000000142000000000013000000000001332000000000135000000000013500000000001370000038000000000000005000000000000066602000000000000000009999123100000010000000000000BRCGASACNPA3161
012024110802CGRA3       010GRAZZIOTIN  ON           R$  000000000246400000000024790000000002464000000000246900000000024790000000002425000000000250000003000000000000000300000000000000740800000000000000009999123100000010000000000000BRCGRAACNOR2083
012024110802CGRA4       010GRAZZIOTIN  PN           R$  000000000242700000000024330000000002408000000000242200000000024100000000002410000000000244900016000000000000002200000000000005330300000000000000009999123100000010000000000000BRCGRAACNPR9083
012024110802CLSA3       010CLEARSALE   ON      NM   R$  000000000096700000000009770000000000950000000000096600000000009770000000000974000000000097703741000000000004642700000000004484997000000000000000009999123100000010000000000000BRCLSAACNOR0100
012024110802CLSC4       010CELESC      PN      N2   R$  000000000787200000000083020000000007872000000000803400000000082960000000008090000000000829700025000000000000003300000000000026513200000000000000009999123100000010000000000000BRCLSCACNPR3132
012024110802BIOM3       010BIOMM       ON      MA   R$  000000000098300000000010200000000000935000000000099100000000010100000000000994000000000101000283000000000000065200000000000064623100000000000000009999123100000010000000000000BRBIOMACNOR2112
012024110802TELB3       010TELEBRAS    ON           R$  000000000130000000000013000000000001250000000000129200000000013000000000001290000000000132500006000000000000000900000000000001163000000000000000009999123100000010000000000000BRTELBACNOR2140
012024110802TELB4       010TELEBRAS    PN           R$  000000000085300000000008530000000000837000000000084500000000008370000000000835000000000085200016000000000000004600000000000003889700000000000000009999123100000010000000000000BRTELBACNPR9140
012024110802TEND3       010TENDA       ON      NM   R$  000000000164900000000016490000000001555000000000159000000000016310000000001626000000000163216580000000000004913400000000007813580000000000000000009999123100000010000000000000BRTENDACNOR4111
012024110802TFCO4       010TRACK FIELD PN      N2   R$  000000000099700000000009980000000000976000000000099000000000009940000000000983000000000099500603000000000000138000000000000136678200000000000000009999123100000010000000000000BRTFCOACNPR8115
012024110802TGMA3       010TEGMA       ON  EDJ NM   R$  000000000305200000000031090000000003012000000000307300000000031090000000003105000000000310902221000000000000352200000000001082454600000000000000009999123100000010000000000000BRTGMAACNOR7146
012024110802TIMS3       010TIM         ON      NM   R$  000000000159000000000016090000000001583000000000159600000000015910000000001590000000000159118650000000000006492500000000010368324300000000000000009999123100000010000000000000BRTIMSACNOR5118
012024110802USIM3       010USIMINAS    ON      N1   R$  000000000064100000000006410000000000607000000000061500000000006180000000000616000000000061801446000000000000592500000000000364914500000000000000009999123100000010000000000000BRUSIMACNOR3167
012024110802USIM5       010USIMINAS    PNA     N1   R$  000000000064600000000006470000000000619000000000062700000000006250000000000624000000000062517052000000000020565900000000012912534900000000000000009999123100000010000000000000BRUSIMACNPA6169
012024110802ALPA3       010ALPARGATAS  ON      N1   R$  000000000064700000000006470000000000616000000000062400000000006330000000000615000000000063300035000000000000009100000000000005680900000000000000009999123100000010000000000000BRALPAACNOR0231
012024110802ALPA4       010ALPARGATAS  PN      N1   R$  000000000071800000000007180000000000642000000000067100000000006530000000000653000000000065416565000000000022266600000000014959926100000000000000009999123100000010000000000000BRALPAACNPR7232
012024110802ALPK3       010ESTAPAR     ON      NM   R$  000000000028600000000002880000000000278000000000028200000000002830000000000283000000000028600248000000000000176700000000000049950900000000000000009999123100000010000000000000BRALPKACNOR9101
012024110802ALUP11      010ALUPAR      UNT     N2   R$  000000000288700000000029070000000002820000000000285600000000028610000000002856000000000286206266000000000001436800000000004104729200000000000000009999123100000010000000000000BRALUPCDAM15120
012024110802ALUP3       010ALUPAR      ON      N2   R$  000000000097800000000009900000000000965000000000097800000000009860000000000968000000000098600078000000000000010700000000000010474600000000000000009999123100000010000000000000BRALUPACNOR8120
012024110802ALUP4       010ALUPAR      PN      N2   R$  000000000095000000000009550000000000928000000000093800000000009390000000000931000000000094700113000000000000015300000000000014364300000000000000009999123100000010000000000000BRALUPACNPR5120
012024110802AMAR3       010LOJAS MARISAON      NM   R$  000000000009300000000000960000000000092000000000009300000000000930000000000093000000000009400379000000000000308500000000000028969400000000000000009999123100000010000000000000BRAMARACNOR4115
012024110802AMBP3       010AMBIPAR     ON      NM   R$  000000001510000000000160000000000014464000000001534200000000158000000000015528000000001580001269000000000000205600000000003154404100000000000000009999123100000010000000000000BRAMBPACNOR6103
012024110802TOTS3       010TOTVS       ON      NM   R$  000000000301500000000031370000000003013000000000309800000000030860000000003085000000000309118715000000000005849600000000018124757800000000000000009999123100000010000000000000BRTOTSACNOR8145
012024110802TPIS3       010TRIUNFO PARTON      NM   R$  000000000069000000000007090000000000635000000000067000000000006910000000000691000000000069600814000000000000168700000000000113044700000000000000009999123100000010000000000000BRTPISACNOR8118
012024110802TRAD3       010TC          ON      NM   R$  000000000068400000000007490000000000644000000000070200000000007480000000000736000000000074801571000000000000340900000000000239351000000000000000009999123100000010000000000000BRTRADACNOR3102
012024110802TRIS3       010TRISUL      ON      NM   R$  000000000055000000000005620000000000532000000000054500000000005530000000000551000000000055402068000000000000739900000000000403769700000000000000009999123100000010000000000000BRTRISACNOR4118
012024110802BRAP3       010BRADESPAR   ON      N1   R$  000000000182100000000018300000000001766000000000179300000000018080000000001797000000000180800655000000000000129300000000000231851600000000000000009999123100000010000000000000BRBRAPACNOR5148
012024110802BRAP4       010BRADESPAR   PN      N1   R$  000000000197500000000019770000000001906000000000193900000000019360000000001936000000000194015748000000000010068900000000019530333300000000000000009999123100000010000000000000BRBRAPACNPR2148
012024110802CSUD3       010CSU DIGITAL ON      NM   R$  000000000165200000000016550000000001591000000000160700000000015930000000001593000000000160300621000000000000110300000000000177359700000000000000009999123100000010000000000000BRCSUDACNOR5111
012024110802CURY3       010CURY S/A    ON      NM   R$  000000000228300000000022830000000002229000000000226400000000022700000000002268000000000227005124000000000000969700000000002196363000000000000000009999123100000010000000000000BRCURYACNOR3110
012024110802CVCB3       010CVC BRASIL  ON      NM   R$  000000000020200000000002060000000000200000000000020200000000002040000000000203000000000020508461000000000012005600000000002433263300000000000000009999123100000010000000000000BRCVCBACNOR1116
012024110802ENGI11      010ENERGISA    UNT     N2   R$  000000000414800000000041650000000004055000000000411000000000041250000000004125000000000413024370000000000005798600000000023837675400000000000000009999123100000010000000000000BRENGICDAM16136
012024110802ENGI3       010ENERGISA    ON      N2   R$  000000000124000000000012500000000001213000000000123300000000012240000000001224000000000125500051000000000000007100000000000008756300000000000000009999123100000010000000000000BRENGIACNOR0146
012024110802ENGI4       010ENERGISA    PN      N2   R$  000000000072400000000007390000000000706000000000071700000000007390000000000720000000000073800074000000000000015600000000000011199800000000000000009999123100000010000000000000BRENGIACNPR7142
012024110802ENJU3       010ENJOEI      ON      NM   R$  000000000013100000000001320000000000127000000000012900000000001310000000000129000000000013100653000000000000223100000000000028988000000000000000009999123100000010000000000000BRENJUACNOR9100
012024110802EPAR3       010EMBPAR S/A  ON           R$  000000000057200000000005720000000000548000000000055900000000005530000000000550000000000055200026000000000000005600000000000003134300000000000000009999123100000010000000000000BREPARACNOR9105
012024110802EQMA3B      010EQTLMARANHAOON      MB   R$  000000000232600000000023360000000002325000000000233100000000023360000000002301000000000235900005000000000000000900000000000002098300000000000000009999123100000010000000000000BREQMAACNOR8108
012024110802EQPA3       010EQTL PARA   ON           R$  000000000057200000000005950000000000565000000000057700000000005860000000000585000000000058600036000000000000006300000000000003635200000000000000009999123100000010000000000000BREQPAACNOR1111
012024110802EQTL3       010EQUATORIAL  ON      NM   R$  000000000312100000000031700000000003086000000000314100000000031420000000003142000000000315428332000000000009484300000000029798930000000000000000009999123100000010000000000000BREQTLACNOR0131
012024110802ESPA3       010ESPACOLASER ON      NM   R$  000000000010300000000001030000000000101000000000010100000000001030000000000102000000000010300131000000000000422100000000000043017500000000000000009999123100000010000000000000BRESPAACNOR7103
012024110802VITT3       010VITTIA      ON      NM   R$  000000000054400000000005580000000000531000000000053600000000005400000000000540000000000054100886000000000000139900000000000075124100000000000000009999123100000010000000000000BRVITTACNOR4108
012024110802VIVA3       010VIVARA S.A. ON      NM   R$  000000000245000000000025920000000002416000000000251900000000025580000000002557000000000255939649000000000007183300000000018098078600000000000000009999123100000010000000000000BRVIVAACNOR0107
012024110802VIVR3       010VIVER       ON      NM   R$  000000000014400000000001460000000000140000000000014200000000001450000000000143000000000014500101000000000000079900000000000011419400000000000000009999123100000010000000000000BRVIVRACNOR4123
012024110802VIVT3       010TELEF BRASILON           R$  000000000527100000000052910000000005176000000000521400000000052000000000005200000000000520112680000000000001987800000000010364669300000000000000009999123100000010000000000000BRVIVTACNOR0184
012024110802EZTC3       010EZTEC       ON  ED  NM   R$  000000000143000000000014370000000001399000000000141900000000014230000000001423000000000143008700000000000002887600000000004098571000000000000000009999123100000010000000000000BREZTCACNOR0127
012024110802FESA4       010FERBASA     PN      N1   R$  000000000077900000000007860000000000768000000000077400000000007700000000000770000000000077802088000000000000572500000000000443383300000000000000009999123100000010000000000000BRFESAACNPR5085
012024110802JHSF3       010JHSF PART   ON  ED  NM   R$  000000000045000000000004540000000000441000000000044800000000004540000000000451000000000045510702000000000002357800000000001057013400000000000000009999123100000010000000000000BRJHSFACNOR2141
012024110802JSLG3       010JSL         ON      NM   R$  000000000077000000000007790000000000753000000000076300000000007700000000000769000000000077002298000000000000715700000000000546086000000000000000009999123100000010000000000000BRJSLGACNOR2121
012024110802KEPL3       010KEPLER WEBERON      NM   R$  000000000102000000000010200000000000987000000000099700000000009950000000000994000000000099503778000000000001298400000000001294510200000000000000009999123100000010000000000000BRKEPLACNOR1064
012024110802LUPA3       010LUPATECH    ON      NM   R$  000000000014000000000001410000000000138000000000013900000000001390000000000139000000000014000111000000000000164100000000000022898800000000000000009999123100000010000000000000BRLUPAACNOR8112
012024110802PATI3       010PANATLANTICAON           R$  000000000290000000000029000000000002900000000000290000000000029000000000002800000000000300000001000000000000000100000000000000290000000000000000009999123100000010000000000000BRPATIACNOR6067
012024110802PCAR3       010P.ACUCAR-CBDON  ATZ NM   R$  000000000030400000000003040000000000287000000000029300000000002930000000000292000000000029312332000000000017109700000000005019886400000000000000009999123100000010000000000000BRPCARACNOR3168
012024110802PDGR3       010PDG REALT   ON      NM   R$  000000000000100000000000020000000000001000000000000100000000000010000000000001000000000000200563000000000026826200000000000028307000000000000000009999123100000010000000000000BRPDGRACNOR8119
012024110802PDTC3       010PADTEC      ON      NM   R$  000000000017900000000001800000000000175000000000017700000000001790000000000176000000000017700064000000000000031400000000000005587100000000000000009999123100000010000000000000BRPDTCACNOR3101
012024110802PETR3       010PETROBRAS   ON      N2   R$  000000000385000000000039330000000003846000000000388200000000039080000000003907000000000391029398000000000013214700000000051308594600000000000000009999123100000010000000000000BRPETRACNOR9206
012024110802PETR4       010PETROBRAS   PN      N2   R$  000000000358500000000036320000000003554000000000359600000000036180000000003617000000000361880702000000000049792700000000179087057000000000000000009999123100000010000000000000BRPETRACNPR6214
012024110802RANI3       010IRANI       ON  ED  NM   R$  000000000072200000000007240000000000706000000000071500000000007120000000000712000000000071902419000000000000760500000000000544278600000000000000009999123100000010000000000000BRRANIACNOR5074
012024110802RAPT3       010RANDON PART ON      N1   R$  000000000093200000000009320000000000911000000000092200000000009320000000000916000000000093500096000000000000037700000000000034765100000000000000009999123100000010000000000000BRRAPTACNOR7163
012024110802RAPT4       010RANDON PART PN      N1   R$  000000000106800000000010720000000001040000000000105100000000010470000000001047000000000105404453000000000001391600000000001463223100000000000000009999123100000010000000000000BRRAPTACNPR4163
012024110802SAPR4       010SANEPAR     PN      N2   R$  000000000052500000000005320000000000520000000000052600000000005270000000000527000000000053003196000000000001763400000000000927644600000000000000009999123100000010000000000000BRSAPRACNPR6159
012024110802SBFG3       010GRUPO SBF   ON      NM   R$  000000000138600000000013860000000001291000000000133500000000013600000000001359000000000136209163000000000002871800000000003835643100000000000000009999123100000010000000000000BRSBFGACNOR1103
012024110802SBSP3       010SABESP      ON      NM   R$  000000000890000000000089880000000008870000000000894300000000089370000000008937000000000895716188000000000003408200000000030479667000000000000000009999123100000010000000000000BRSBSPACNOR5161
012024110802PFRM3       010PROFARMA    ON      NM   R$  000000000074900000000007550000000000724000000000073900000000007470000000000740000000000074701595000000000000328200000000000242576700000000000000009999123100000010000000000000BRPFRMACNOR1116
012024110802PGMN3       010PAGUE MENOS ON      NM   R$  000000000032500000000003280000000000314000000000031900000000003170000000000317000000000031901456000000000000986300000000000314744300000000000000009999123100000010000000000000BRPGMNACNOR8103
012024110802PINE3       010PINE        ON      N2   R$  000000000049800000000004980000000000479000000000049000000000004790000000000455000000000048000008000000000000001800000000000000882700000000000000009999123100000010000000000000BRPINEACNOR1152
012024110802BEES4       010BANESTES    PN  EJ       R$  000000000087100000000008760000000000831000000000086200000000008710000000000864000000000087600036000000000000005300000000000004572500000000000000009999123100000010000000000000BRBEESACNPR6322
012024110802BHIA3       010CASAS BAHIA ON      NM   R$  000000000041000000000004100000000000399000000000040400000000004050000000000405000000000040601956000000000002750100000000001111681700000000000000009999123100000010000000000000BRBHIAACNOR1102
012024110802BPAC3       010BTGP BANCO  ON      N2   R$  000000000152300000000015370000000001460000000000149800000000015110000000001460000000000152000029000000000000003800000000000005695600000000000000009999123100000010000000000000BRBPACACNOR7134
012024110802BPAC5       010BTGP BANCO  PNA     N2   R$  000000000084300000000008670000000000839000000000085500000000008670000000000839000000000087300016000000000000002400000000000002053100000000000000009999123100000010000000000000BRBPACACNPA0134
012024110802BPAN4       010BANCO PAN   PN      N1   R$  000000000079800000000008040000000000783000000000079400000000008000000000000800000000000080203554000000000002369800000000001882134600000000000000009999123100000010000000000000BRBPANACNPR1115
012024110802ENEV3       010ENEVA       ON      NM   R$  000000000121400000000012440000000001211000000000122800000000012300000000001229000000000123026697000000000011757600000000014444552600000000000000009999123100000010000000000000BRENEVACNOR8106
012024110802HBRE3       010HBR REALTY  ON      NM   R$  000000000044300000000004450000000000421000000000043000000000004410000000000439000000000044102455000000000001149000000000000494839800000000000000009999123100000010000000000000BRHBREACNOR4100
012024110802HBSA3       010HIDROVIAS   ON      NM   R$  000000000032300000000003290000000000321000000000032400000000003250000000000323000000000032605433000000000004015400000000001304467300000000000000009999123100000010000000000000BRHBSAACNOR0101
012024110802HETA4       010HERCULES    PN           R$  000000000061600000000006240000000000605000000000061300000000006240000000000601000000000064300007000000000000001100000000000000674700000000000000009999123100000010000000000000BRHETAACNPR9136
012024110802HYPE3       010HYPERA      ON      NM   R$  000000000212100000000021400000000002063000000000209900000000020950000000002095000000000209620666000000000009637100000000020235715700000000000000009999123100000010000000000000BRHYPEACNOR0144
012024110802MATD3       010MATER DEI   ON      NM   R$  000000000041500000000004430000000000407000000000042000000000004430000000000443000000000044401508000000000000376600000000000158325100000000000000009999123100000010000000000000BRMATDACNOR4104
012024110802MBLY3       010MOBLY       ON      NM   R$  000000000019600000000001980000000000194000000000019500000000001950000000000195000000000019600154000000000000092300000000000018043000000000000000009999123100000010000000000000BRMBLYACNOR5101
012024110802MDIA3       010M.DIASBRANCOON      NM   R$  000000000260000000000026140000000002514000000000255500000000025260000000002521000000000252605733000000000001528100000000003904836400000000000000009999123100000010000000000000BRMDIAACNOR7136
012024110802MDNE3       010MOURA DUBEUXON      NM   R$  000000000157400000000016360000000001570000000000161000000000016250000000001610000000000162604662000000000000769700000000001239347100000000000000009999123100000010000000000000BRMDNEACNOR9100
012024110802MEAL3       010IMC S/A     ON      NM   R$  000000000013400000000001340000000000128000000000013100000000001320000000000130000000000013200228000000000000443800000000000058228500000000000000009999123100000010000000000000BRMEALACNOR9105
012024110802MELK3       010MELNICK     ON      NM   R$  000000000035500000000003550000000000346000000000035000000000003520000000000352000000000035500692000000000000565900000000000198095500000000000000009999123100000010000000000000BRMELKACNOR8111
012024110802MGEL4       010MANGELS INDLPN           R$  000000000080000000000008000000000000800000000000080000000000008000000000000779000000000082400001000000000000000100000000000000080000000000000000009999123100000010000000000000BRMGELACNPR3147
012024110802MGLU3       010MAGAZ LUIZA ON      NM   R$  000000000097300000000009920000000000907000000000095500000000009600000000000960000000000096158541000000000060454600000000057770084100000000000000009999123100000010000000000000BRMGLUACNOR2125
012024110802ANIM3       010ANIMA       ON      NM   R$  000000000024000000000002430000000000229000000000023500000000002340000000000234000000000023507292000000000017011600000000004013512000000000000000009999123100000010000000000000BRANIMACNOR6109
012024110802ARML3       010ARMAC       ON      NM   R$  000000000076300000000007910000000000713000000000073100000000007320000000000726000000000073203393000000000000804600000000000588739300000000000000009999123100000010000000000000BRARMLACNOR1113
012024110802ASAI3       010ASSAI       ON      NM   R$  000000000071600000000007360000000000690000000000070200000000007010000000000701000000000070435184000000000034800600000000024447308000000000000000009999123100000010000000000000BRASAIACNOR0106
012024110802ATOM3       010ATOMPAR     ON           R$  000000000035300000000003720000000000347000000000035300000000003590000000000356000000000036400288000000000000083600000000000029552400000000000000009999123100000010000000000000BRATOMACNOR1106
012024110802AURE3       010AUREN       ON      NM   R$  000000000101000000000010240000000001003000000000101300000000010170000000001016000000000102211047000000000005265100000000005335556100000000000000009999123100000010000000000000BRAUREACNOR9104
012024110802BMEB4       010MERCANTIL   PN      N1   R$  000000000393600000000039850000000003830000000000389300000000038690000000003830000000000386800227000000000000032300000000000125774900000000000000009999123100000010000000000000BRBMEBACNPR5211
012024110802BMGB4       010BANCO BMG   PN      N1   R$  000000000040600000000004060000000000394000000000039900000000004020000000000399000000000040202132000000000000832400000000000332136600000000000000009999123100000010000000000000BRBMGBACNPR0111
012024110802BMOB3       010BEMOBI TECH ON      NM   R$  000000000146100000000014690000000001406000000000144800000000014570000000001445000000000145702133000000000000565700000000000819504900000000000000009999123100000010000000000000BRBMOBACNOR7103
012024110802SIMH3       010SIMPAR      ON      NM   R$  000000000052500000000005280000000000508000000000051600000000005150000000000515000000000051704825000000000004246900000000002193551400000000000000009999123100000010000000000000BRSIMHACNOR0107
012024110802SLCE3       010SLC AGRICOLAON      NM   R$  000000000173600000000017720000000001717000000000174100000000017350000000001735000000000174307720000000000001935300000000003370652000000000000000009999123100000010000000000000BRSLCEACNOR2125
012024110802VALE3       010VALE        ON      NM   R$  000000000619900000000062050000000005970000000000606800000000060630000000006062000000000606498874000000000048215200000000292574922200000000000000009999123100000010000000000000BRVALEACNOR0211
012024110802VLID3       010VALID       ON  EJ  NM   R$  000000000237100000000025340000000002330000000000245200000000025340000000002511000000000253505227000000000001363300000000003344131300000000000000009999123100000010000000000000BRVLIDACNOR5145
012024110802VSTE3       010VESTE       ON      NM   R$  000000000102900000000010500000000000981000000000101200000000010010000000001001000000000101900066000000000000024700000000000025001100000000000000009999123100000010000000000000BRVSTEACNOR5103
012024110802VTRU3       010VITRUEDUCA  ON      NM   R$  000000000086800000000008770000000000834000000000085800000000008770000000000860000000000087700475000000000000109700000000000094200800000000000000009999123100000010000000000000BRVTRUACNOR3100
012024110802VULC3       010VULCABRAS   ON      NM   R$  000000000164200000000016490000000001615000000000162600000000016300000000001630000000000163503002000000000000688000000000001118837900000000000000009999123100000010000000000000BRVULCACNOR2163
012024110802VVEO3       010VIVEO       ON      NM   R$  000000000023700000000002400000000000227000000000023300000000002350000000000235000000000023703440000000000001853900000000000432619500000000000000009999123100000010000000000000BRVVEOACNOR0104
012024110802WEGE3       010WEG         ON      NM   R$  000000000550100000000055710000000005490000000000551600000000055090000000005509000000000551722915000000000007160900000000039502133600000000000000009999123100000010000000000000BRWEGEACNOR0225
012024110802JALL3       010JALLESMACHADON      NM   R$  000000000059100000000005920000000000583000000000058600000000005850000000000585000000000058601567000000000000603500000000000353909700000000000000009999123100000010000000000000BRJALLACNOR0106
012024110802JBSS3       010JBS         ON      NM   R$  000000000356400000000035670000000003483000000000350800000000034970000000003497000000000349929190000000000006850100000000024035350500000000000000009999123100000010000000000000BRJBSSACNOR8122
012024110802BAHI3       010BAHEMA      ON      MA   R$  000000000047000000000004700000000000465000000000046500000000004650000000000465000000000048000004000000000000000900000000000000419000000000000000009999123100000010000000000000BRBAHIACNOR1074
012024110802BALM4       010BAUMER      PN           R$  000000000105000000000010500000000001050000000000105000000000010500000000001007000000000105000001000000000000000100000000000000105000000000000000009999123100000010000000000000BRBALMACNPR2056
012024110802BAZA3       010AMAZONIA    ON           R$  000000000924900000000092490000000009118000000000920900000000091190000000009118000000000924700007000000000000001500000000000013814500000000000000009999123100000010000000000000BRBAZAACNOR0179
012024110802BBAS3       010BRASIL      ON      NM   R$  000000000261000000000026130000000002590000000000259900000000025990000000002599000000000260043743000000000015870000000000041250376600000000000000009999123100000010000000000000BRBBASACNOR3326
012024110802BEES3       010BANESTES    ON  EJ       R$  000000000084500000000008620000000000844000000000085000000000008490000000000849000000000085900085000000000000015300000000000013016500000000000000009999123100000010000000000000BRBEESACNOR9397
012024110802BLAU3       010BLAU        ON      NM   R$  000000000160400000000016040000000001513000000000153900000000015230000000001523000000000152503379000000000000559600000000000861303900000000000000009999123100000010000000000000BRBLAUACNOR8115
012024110802CXSE3       010CAIXA SEGURION  ED  NM   R$  000000000142400000000014520000000001410000000000142300000000014110000000001411000000000141722257000000000005695200000000008104690000000000000000009999123100000010000000000000BRCXSEACNOR7108
012024110802CYRE3       010CYRELA REALTON      NM   R$  000000000215800000000021640000000002107000000000213100000000021500000000002150000000000215213484000000000003639600000000007758267800000000000000009999123100000010000000000000BRCYREACNOR7140
012024110802ETER3       010ETERNIT     ON      NM   R$  000000000052400000000005300000000000510000000000051700000000005300000000000518000000000053000733000000000000379700000000000196553000000000000000009999123100000010000000000000BRETERACNOR3244
012024110802EUCA3       010EUCATEX     ON      N1   R$  000000000157600000000015950000000001575000000000158200000000015950000000001575000000000163900003000000000000000300000000000000474600000000000000009999123100000010000000000000BREUCAACNOR1157
012024110802EUCA4       010EUCATEX     PN      N1   R$  000000000140800000000014350000000001394000000000140400000000014060000000001406000000000141700166000000000000033500000000000047065600000000000000009999123100000010000000000000BREUCAACNPR8044
012024110802EVEN3       010EVEN        ON      NM   R$  000000000059000000000005900000000000569000000000057500000000005810000000000581000000000058203439000000000001376800000000000792608800000000000000009999123100000010000000000000BREVENACNOR8120
012024110802WLMM4       010WLM IND COM PN           R$  000000000299900000000030000000000002999000000000299900000000030000000000002910000000000299900002000000000000000200000000000000599900000000000000009999123100000010000000000000BRWLMMACNPR3119
012024110802YDUQ3       010YDUQS PART  ON      NM   R$  000000000101000000000010660000000000975000000000100700000000010230000000001022000000000102416739000000000007796000000000007852460700000000000000009999123100000010000000000000BRYDUQACNOR3105
012024110802FLRY3       010FLEURY      ON      NM   R$  000000000142600000000014390000000001349000000000137100000000013600000000001358000000000136023759000000000007407900000000010162008800000000000000009999123100000010000000000000BRFLRYACNOR5139
012024110802FRAS3       010FRAS-LE     ON      N1   R$  000000000210500000000021100000000002061000000000208100000000020800000000002080000000000208701431000000000000274100000000000570611600000000000000009999123100000010000000000000BRFRASACNOR0160
012024110802FRIO3       010METALFRIO   ON      NM   R$  000000001539800000000153980000000015300000000001534900000000153000000000014399000000001540000002000000000000000200000000000003069800000000000000009999123100000010000000000000BRFRIOACNOR2111
012024110802GEPA4       010GER PARANAP PN           R$  000000000297500000000029750000000002975000000000297500000000029750000000002975000000000302100001000000000000000100000000000000297500000000000000009999123100000010000000000000BRGEPAACNPR9161
012024110802GFSA3       010GAFISA      ON      NM   R$  000000000014900000000001520000000000144000000000014800000000001490000000000148000000000014901722000000000005920800000000000879319000000000000000009999123100000010000000000000BRGFSAACNOR3125
012024110802IFCM3       010INFRACOMM   ON      NM   R$  000000000001300000000000140000000000012000000000001200000000000120000000000012000000000001301369000000000013372500000000000169664500000000000000009999123100000010000000000000BRIFCMACNOR8101
012024110802IGTI11      010IGUATEMI S.AUNT     N1   R$  000000000203600000000020500000000002010000000000202300000000020100000000002010000000000201910461000000000002538200000000005135578800000000000000009999123100000010000000000000BRIGTICDAM16106
012024110802IGTI3       010IGUATEMI S.AON      N1   R$  000000000024100000000002480000000000236000000000023800000000002480000000000239000000000025200198000000000000136200000000000032433600000000000000009999123100000010000000000000BRIGTIACNOR8106
012024110802INEP3       010INEPAR      ON           R$  000000000015000000000001520000000000149000000000015000000000001510000000000150000000000015200011000000000000003700000000000000555900000000000000009999123100000010000000000000BRINEPACNOR1143
012024110802INEP4       010INEPAR      PN           R$  000000000014700000000001470000000000141000000000014500000000001410000000000141000000000014800015000000000000002300000000000000334400000000000000009999123100000010000000000000BRINEPACNPR8143
012024110802INTB3       010INTELBRAS   ON      NM   R$  000000000175500000000017600000000001713000000000173100000000017290000000001718000000000173005394000000000001449100000000002508777500000000000000009999123100000010000000000000BRINTBACNOR9112
012024110802IRBR3       010IRBBRASIL REON      NM   R$  000000000408900000000041060000000003997000000000404200000000040790000000004079000000000408404334000000000000791700000000003200590800000000000000009999123100000010000000000000BRIRBRACNOR4111
012024110807SEQL3       010SEQUOIA LOG ON      NM   R$  000000000038100000000003820000000000370000000000037600000000003750000000000374000000000037600981000000000000740300000000000278758600000000000000009999123100000010000000000000BRSEQLACNOR2103
012024110807TXRX4       010TEX RENAUX  PN           R$  000000000022000000000002210000000000220000000000022000000000002210000000000218000000000022500002000000000000000500000000000000110100000000000000009999123100000010000000000000BRTXRXACNPR0142
012024110807NUTR3       010NUTRIPLANT  ON      MA   R$  000000000037700000000003960000000000341000000000037700000000003750000000000368000000000038600060000000000000016000000000000006044300000000000000009999123100000010000000000000BRNUTRACNOR0104
012024110808NEXP3       010NEXPE       ON           R$  000000000045000000000004500000000000450000000000045000000000004500000000000413000000000044900001000000000000000100000000000000045000000000000000009999123100000010000000000000BRNEXPACNOR0101
012024110808AGXY3       010AGROGALAXY  ON      NM   R$  000000000004400000000000450000000000042000000000004300000000000420000000000042000000000004300208000000000000100800000000000004405300000000000000009999123100000010000000000000BRAGXYACNOR4103
012024110808LIGT3       010LIGHT S/A   ON  ES  NM   R$  000000000049200000000004960000000000485000000000049000000000004920000000000487000000000049201007000000000000243700000000000119440100000000000000009999123100000010000000000000BRLIGTACNOR2125
012024110808BDLL4       010BARDELLA    PN           R$  000000000090000000000009000000000000900000000000090000000000009000000000000900000000000097000001000000000000000100000000000000090000000000000000009999123100000010000000000000BRBDLLACNPR8151
012024110808RNEW11      010RENOVA      UNT     N2   R$  000000000032600000000003480000000000326000000000033200000000003480000000000332000000000034800031000000000000010100000000000003360400000000000000009999123100000010000000000000BRRNEWCDAM15110
012024110808RNEW3       010RENOVA      ON      N2   R$  000000000010700000000001100000000000106000000000010700000000001080000000000106000000000010800094000000000000055700000000000006007200000000000000009999123100000010000000000000BRRNEWACNOR8110
012024110808RNEW4       010RENOVA      PN      N2   R$  000000000010900000000001100000000000108000000000010800000000001100000000000108000000000011000120000000000000066300000000000007202800000000000000009999123100000010000000000000BRRNEWACNPR5110
012024110808PMAM3       010PARANAPANEMAON      NM   R$  000000000010100000000001060000000000097000000000010200000000001050000000000104000000000010500292000000000000268500000000000027448700000000000000009999123100000010000000000000BRPMAMACNOR3040
012024110808OIBR3       010OI          ON      N1   R$  000000000041900000000004380000000000412000000000042400000000004120000000000411000000000041201389000000000000770800000000000327206700000000000000009999123100000010000000000000BROIBRACNOR1112
012024110808OIBR4       010OI          PN      N1   R$  000000000110100000000013000000000001101000000000123100000000011850000000001181000000000124100304000000000000064500000000000079449800000000000000009999123100000010000000000000BROIBRACNPR8111
012024110808OSXB3       010OSX BRASIL  ON      NM   R$  000000000050700000000006000000000000498000000000054200000000005110000000000511000000000053200089000000000000023000000000000012486400000000000000009999123100000010000000000000BROSXBACNOR8109
012024110808RPMG3       010PET MANGUINHON           R$  000000000025900000000002690000000000257000000000026200000000002690000000000261000000000026700022000000000000007100000000000001861600000000000000009999123100000010000000000000BRRPMGACNOR9194
012024110808RSID3       010ROSSI RESID ON      NM   R$  000000000031500000000003260000000000304000000000031700000000003260000000000314000000000032600406000000000000072900000000000023120100000000000000009999123100000010000000000000BRRSIDACNOR8120
012024110808TEKA4       010TEKA        PN           R$  000000000255100000000028200000000002551000000000268500000000028200000000001645000000000299000002000000000000000200000000000000537100000000000000009999123100000010000000000000BRTEKAACNPR3140
012024110808CTSA4       010SANTANENSE  PN           R$  000000000011400000000001140000000000114000000000011400000000001140000000000101000000000011500003000000000000000300000000000000034200000000000000009999123100000010000000000000BRCTSAACNPR0062
012024110808JFEN3       010JOAO FORTES ON           R$  000000000002300000000000230000000000021000000000002200000000000220000000000022000000000002300232000000000000799600000000000017633100000000000000009999123100000010000000000000BRJFENACNOR0059
012024110808HOOT4       010HOTEIS OTHONPN           R$  000000000023000000000002360000000000226000000000022800000000002270000000000227000000000023000020000000000000007100000000000001622300000000000000009999123100000010000000000000BRHOOTACNPR9015
012024110808AMER3       010AMERICANAS  ON      NM   R$  000000000032300000000003240000000000307000000000031400000000003130000000000313000000000031407181000000000014602600000000004592944500000000000000009999123100000010000000000000BRAMERACNOR6103
012024110808ATMP3       010ATMASA      ON           R$  000000000013300000000001330000000000130000000000013100000000001330000000000131000000000013400008000000000000001300000000000000170400000000000000009999123100000010000000000000BRATMPACNOR8100
012024110810BSLI2       010BRB BANCO   DIR PRE      R$  000000000005300000000000540000000000053000000000005300000000000540000000000011000000000005000002000000000000000200000000000000010700000000000000009999123100000010000000000000BRBSLID03PR3194
012024110810LIGT11      010LIGHT S/A   DIR     NM   R$  000000000000100000000000020000000000001000000000000100000000000010000000000000000000000000100123000000000000271700000000000000275800000000000000009999123100000010000000000000BRLIGTD01M16124
012024110810LIGT13      010LIGHT S/A   DIR     NM   R$  000000000000100000000000010000000000001000000000000100000000000010000000000000000000000000100019000000000000037000000000000000037000000000000000009999123100000010000000000000BRLIGTD02M15124
012024110810HBSA1       010HIDROVIAS   DIR ORD NM   R$  000000000000100000000000010000000000001000000000000100000000000010000000000000000000000000100025000000000000026900000000000000026900000000000000009999123100000010000000000000BRHBSAD01OR5100
012024110810MBLY1       010MOBLY       DIR ORD NM   R$  000000000000100000000000010000000000001000000000000100000000000010000000000000000000000000100004000000000000010800000000000000010800000000000000009999123100000010000000000000BRMBLYD01OR0100
012024110810MBLY11      010MOBLY       DIR     NM   R$  000000000000700000000000070000000000007000000000000700000000000070000000000007000000000000800001000000000000000200000000000000001400000000000000009999123100000010000000000000BRMBLYD01M18100
012024110810MERC2       010MERC FINANC DIR PRE      R$  000000000000100000000000490000000000001000000000003700000000000420000000000042000000000000000014000000000000002500000000000000092700000000000000009999123100000010000000000000BRMERCD02PR2180
012024110812DAMA11      010FII DAMA    CI  ER       R$  000000000095900000000009800000000000910000000000095600000000009800000000000910000000000097900008000000000000000288000000000000275351000000000000009999123100000010000000000000BRDAMACTF007106
012024110812DAMT11      010FII DIAMANTECI           R$  000000000130100000000013010000000001301000000000130100000000013010000000001301000000000130500001000000000000000003000000000000003903000000000000009999123100000010000000000000BRDAMTCTF007117
012024110812DEVA11      010FII DEVANT  CI  ER       R$  000000000328300000000032830000000003200000000000324100000000032060000000003206000000000321102170000000000000028929000000000093759115000000000000009999123100000010000000000000BRDEVACTF000154
012024110812DPRO11      010FII DEVA PROCI  ER       R$  000000000067500000000006750000000000675000000000067500000000006750000000000650000000000070000004000000000000000151000000000000101925000000000000009999123100000010000000000000BRDPROCTF005129
012024110812DRIT11      010FII MTGESTAOCI  ER       R$  000000000794900000000085000000000007949000000000822400000000085000000000008501000000000890000002000000000000000002000000000000016449000000000000009999123100000010000000000000BRDRITCTF009258
012024110812DVFF11      010FII DEVA FOFCI  ER       R$  000000000068100000000006980000000000666000000000067300000000006980000000000680000000000069800036000000000000002930000000000001973673000000000000009999123100000010000000000000BRDVFFCTF006143
012024110812DVLP11      010FII DVLP    CI           R$  000000001304900000000130490000000013049000000001304900000000130490000000000000000000000000000001000000000000000121000000000001578929000000000000009999123100000010000000000000BRDVLPCTF003100
012024110812FIGS11      010FII GEN SHOPCI  ER       R$  000000000501900000000050190000000004952000000000498100000000049920000000004966000000000499200075000000000000002245000000000011184471000000000000009999123100000010000000000000BRFIGSCTF009233
012024110812FIIB11      010FII INDL BR CI  ER       R$  000000004989000000000501810000000049611000000004986400000000497500000000049750000000005000000182000000000000000476000000000023735434000000000000009999123100000010000000000000BRFIIBCTF001256
012024110812FIIP11      010FII RB CAP ICI  ER       R$  000000001633200000000163320000000015825000000001601000000000160200000000015900000000001602000030000000000000000516000000000008261639000000000000009999123100000010000000000000BRFIIPCTF001280
012024110812FISC11      010FII SC 401  CI  ER       R$  000000000635000000000063500000000006274000000000629500000000062740000000006150000000000619900003000000000000000007000000000000044070000000000000009999123100000010000000000000BRFISCCTF008141
012024110812FIVN11      010FII VIDANOVACI           R$  000000000024700000000002540000000000245000000000024800000000002460000000000246000000000024800010000000000000000043000000000000010689000000000000009999123100000010000000000000BRFIVNCTF009100
012024110812FLCR11      010FII FL RECEBCI  ER       R$  000000000953700000000096390000000009537000000000959300000000096010000000009601000000000966400071000000000000000923000000000008854735000000000000009999123100000010000000000000BRFLCRCTF004147
012024110812FLMA11      010FII S F LIMACI  ER       R$  000000001325100000000135500000000013251000000001340800000000135480000000013435000000001354800335000000000000000658000000000008822893000000000000009999123100000010000000000000BRFLMACTF009347
012024110812BNFS11      010FII BANRISULCI  ER       R$  000000001070000000000107000000000010100000000001035300000000103900000000010380000000001039000203000000000000001735000000000017963793000000000000009999123100000010000000000000BRBNFSCTF000246
012024110812CXAG11      010FII CAIXA AGCI  ER       R$  000000000707000000000073300000000007066000000000718000000000071580000000007158000000000715900233000000000000004301000000000030883701000000000000009999123100000010000000000000BRCXAGCTF003133
012024110812LVBI11      010FII VBI LOG CI  ER       R$  000000000999100000000100150000000009960000000000999700000000100150000000010015000000001001612180000000000000043177000000000431648533000000000000009999123100000010000000000000BRLVBICTF002174
012024110812SMRE11      010FII SMRE    CI  ER       R$  000000000999900000000100000000000009700000000000982300000000099000000000009703000000000990001087000000000000002834000000000027840616000000000000009999123100000010000000000000BRSMRECTF001107
012024110812SNCI11      010FII SUNO CRICI           R$  000000000887300000000089720000000008851000000000889000000000089170000000008914000000000891700713000000000000005187000000000046114120000000000000009999123100000010000000000000BRSNCICTF002140
012024110812SNEL11      010FII SUNO EL CI  ES       R$  000000000087500000000008940000000000875000000000088300000000008860000000000886000000000088903888000000000000139267000000000123064851000000000000009999123100000010000000000000BRSNELCTF010114
012024110812SNEL12      010FII SUNO EL DIR          R$  000000000000100000000000020000000000001000000000000100000000000010000000000000000000000000100613000000000001245480000000000001557608000000000000009999123100000010000000000000BRSNELD02M11113
012024110812BBFI11      010FII BB PROGRCI           R$  000000003653100000000371850000000036530000000003665800000000366610000000036661000000003728100064000000000000000235000000000008614772000000000000009999123100000010000000000000BRBBFICTF006329
012024110812BBFO11      010FII BB FOF  CI  ER       R$  000000000642400000000065230000000006390000000000643400000000064110000000006411000000000652400210000000000000007364000000000047381416000000000000009999123100000010000000000000BRBBFOCTF004146
012024110812BBIG11      010FII BBIG    CI  ER       R$  000000000082300000000008240000000000805000000000081200000000008100000000000807000000000081002522000000000000167951000000000136526950000000000000009999123100000010000000000000BRBBIGCTF004106
012024110812BBRC11      010FII BB CORP CI  ER       R$  000000001060800000000111000000000010600000000001075600000000110900000000010688000000001109000121000000000000001776000000000019103714000000000000009999123100000010000000000000BRBBRCCTF004258
012024110812BROF11      010FII BROF    CI           R$  000000000462100000000048480000000004611000000000470900000000048000000000004700000000000480002635000000000000009798000000000046143703000000000000009999123100000010000000000000BRBROFCTF000118
012024110812BTAL11      010FII BTG AGROCI           R$  000000000704000000000070700000000007038000000000706000000000070640000000007064000000000706500787000000000000006100000000000043068695000000000000009999123100000010000000000000BRBTALCTF003144
012024110812BTCI11      010FII BTG CRI CI  ER       R$  000000000090600000000009100000000000898000000000090400000000009030000000000903000000000090412474000000000000193007000000000174517482000000000000009999123100000010000000000000BRBTCICTF005125
012024110812BTHI11      010BTG HOTEL FICI  ER       R$  000000000398400000000039840000000003850000000000390400000000039000000000003863000000000390000057000000000000000748000000000002920539000000000000009999123100000010000000000000BRBTHICTF004114
012024110812BTLG11      010FII BTLG    CI           R$  000000000963000000000097890000000009607000000000968500000000097750000000009740000000000977516371000000000000089271000000000864676842000000000000009999123100000010000000000000BRBTLGCTF000167
012024110812BTRA11      010FII BTG TAGRCI           R$  000000000415500000000042280000000004101000000000417900000000041570000000004135000000000415700233000000000000001928000000000008058361000000000000009999123100000010000000000000BRBTRACTF000141
012024110812BTWR11      010FII BTOWERS CI  ER       R$  000000001060000000000106000000000010549000000001054900000000105490000000010600000000000000000002000000000000002000000000000021098051000000000000009999123100000010000000000000BRBTWRCTF004141
012024110812BTYU11      010FII BTYU    CI           R$  000000000113000000000011300000000001130000000000113000000000011300000000001001000000000115000005000000000000000043000000000000048590000000000000009999123100000010000000000000BRBTYUCTF004106
012024110812CACR11      010CARTESIA FIICI  ER       R$  000000000993900000000099930000000009902000000000992600000000099100000000009910000000000992702490000000000000012482000000000123907418000000000000009999123100000010000000000000BRCACRCTF004138
012024110812CARE11      010FII DEA CARECI           R$  000000000014800000000001500000000000145000000000014800000000001490000000000147000000000014800111000000000000004749000000000000703304000000000000009999123100000010000000000000BRCARECTF000112
012024110812CPFF11      010FII CAP REITCI           R$  000000000619300000000063520000000006193000000000624400000000063130000000006257000000000631300188000000000000001201000000000007499362000000000000009999123100000010000000000000BRCPFFCTF000160
012024110812CPLG11      010FII CPLG    CI  ER       R$  000000000109000000000010900000000001090000000000109000000000010900000000001000000000000109000004000000000000000007000000000000007630000000000000009999123100000010000000000000BRCPLGCTF006102
012024110812CPSH11      010FII CPSH    CI           R$  000000000098900000000009890000000000972000000000097900000000009820000000000979000000000098303901000000000000182905000000000179238104000000000000009999123100000010000000000000BRCPSHCTF017118
012024110812CPTS11      010FII CAPI SECCI           R$  000000000072900000000007330000000000726000000000072900000000007280000000000728000000000072921639000000000000668261000000000487586778000000000000009999123100000010000000000000BRCPTSCTF004235
012024110812CPUR11      010FII CPHBC URCI           R$  000000000093900000000010000000000000939000000000095500000000009850000000000925000000000098503522000000000000713423000000000681678171000000000000009999123100000010000000000000BRCPURCTF004100
012024110812GRUL11      010FII GRUL    CI  ER       R$  000000000084900000000008580000000000826000000000084300000000008580000000000832000000000085800312000000000000038957000000000032850088000000000000009999123100000010000000000000BRGRULCTF004101
012024110812GSFI11      010FII GENERAL CI           R$  000000000074900000000007540000000000743000000000074300000000007500000000000743000000000075000069000000000000006142000000000004569615000000000000009999123100000010000000000000BRGSFICTF009103
012024110812GTWR11      010FII G TOWERSCI  ER       R$  000000000739700000000075990000000007350000000000748000000000074500000000007450000000000755002675000000000000013741000000000102784813000000000000009999123100000010000000000000BRGTWRCTF003168
012024110812BRIM11      010FII BRIO II CI  ER       R$  000000009500000000001107200000000095000000000009766300000000959500000000095002000000010000000053000000000000000079000000000007715407000000000000009999123100000010000000000000BRBRIMCTF008132
012024110812BRIP11      010FII BRIO IIICI  ER       R$  000000009479900000000947990000000094799000000009479900000000947990000000091000000000009479800001000000000000000001000000000000094799000000000000009999123100000010000000000000BRBRIPCTF001118
